:100000000C945D000C9485000C9485000C94850084
:100010000C9485000C9485000C9485000C9485004C
:100020000C9485000C9485000C9485000C9485003C
:100030000C9485000C9485000C9485000C9485002C
:100040000C9446020C9485000C94B6020C94900219
:100050000C9485000C9485000C9485000C9485000C
:100060000C9485000C9485000000000024002700FB
:100070002A0000000000250028002B0004040404CE
:100080000404040402020202020203030303030342
:10009000010204081020408001020408102001021F
:1000A00004081020000000080002010000030407FB
:1000B0000000000000000000770311241FBECFEFF6
:1000C000D8E0DEBFCDBF11E0A0E0B1E0E8E5F7E0A9
:1000D00002C005900D92A231B107D9F721E0A2E14B
:1000E000B1E001C01D92A83BB207E1F710E0CDE5F9
:1000F000D0E004C02197FE010E94A403CC35D107B3
:10010000C9F70E94E8020C94AA030C94000090E046
:10011000FC01E057FF4F249184589F4FFC018491CC
:10012000882399F090E0880F991FFC01E859FF4F50
:10013000A591B491FC01EE58FF4F859194918FB732
:10014000F894EC91E22BEC938FBF0895AF92BF929D
:10015000CF92DF92EF92FF920F931F93CF93DF9393
:100160006C017B018B01040F151FEB015E01AE18C2
:10017000BF08C017D10759F06991D601ED91FC91E4
:100180000190F081E02DC6010995892B79F7C50111
:10019000DF91CF911F910F91FF90EF90DF90CF9063
:1001A000BF90AF900895FC01538D448D252F30E012
:1001B000842F90E0821B930B541710F0CF96089574
:1001C00001970895FC01918D828D981761F0A28DA1
:1001D000AE0FBF2FB11D5D968C91928D9F5F9F7367
:1001E000928F90E008958FEF9FEF0895FC01918D1D
:1001F000828D981731F0828DE80FF11D858D90E08A
:1002000008958FEF9FEF0895FC01918D228D892F26
:1002100090E0805C9F4F821B91098F73992708950E
:1002200082E191E00E94040121E0892B09F420E0A1
:10023000822F089580E090E0892B29F00E94100120
:1002400081110C9400000895FC01A48DA80FB92F12
:10025000B11DA35ABF4F2C91848D90E001968F73EE
:100260009927848FA689B7892C93A089B1898C910D
:10027000837080648C93938D848D981306C002885C
:10028000F389E02D80818F7D80830895EF92FF9226
:100290000F931F93CF93DF93EC0181E0888F9B8DA9
:1002A0008C8D98131AC0E889F989808185FF15C063
:1002B0009FB7F894EE89FF896083E889F989808186
:1002C0008370806480839FBF81E090E0DF91CF9155
:1002D0001F910F91FF90EF900895F62E0B8D10E077
:1002E0000F5F1F4F0F731127E02E8C8D8E110CC0E6
:1002F0000FB607FCFACFE889F989808185FFF5CF31
:10030000CE010E942401F1CFEB8DEC0FFD2FF11DEA
:10031000E35AFF4FF0829FB7F8940B8FEA89FB896D
:1003200080818062CFCFCF93DF93EC01888D8823CB
:10033000B9F0AA89BB89E889F9898C9185FD03C048
:10034000808186FD0DC00FB607FCF7CF8C9185FF2D
:10035000F2CF808185FFEDCFCE010E942401E9CF4D
:10036000DF91CF91089590E0FC01EC55FF4F24916F
:10037000233009F44BC060F5213009F43BC0223032
:1003800009F43EC02491FC01E057FF4F3491FC0179
:10039000E458FF4FE491EE23D1F0222359F02330AB
:1003A00009F45DC008F050C0213009F45EC022306D
:1003B00009F45FC0F0E0EE0FFF1FEE58FF4FA5916C
:1003C000B4918FB7F894EC913E2B3C938FBF089576
:1003D000273041F1283079F12430A1F68091800056
:1003E00080628093800082E890E090938B008093FD
:1003F0008A00089584B5806884BD82E887BD089529
:1004000084B5806284BD82E888BD089580918000B3
:1004100080688093800082E890E0909389008093C8
:10042000880008958091B00080688093B00082E8D1
:100430008093B30008958091B00080628093B000F3
:1004400082E88093B40008952730B1F02830D1F0CD
:10045000243009F0AFCF809180008F7D03C0809160
:1004600080008F7780938000A5CF84B58F7784BD7F
:10047000A1CF84B58F7DFBCF8091B0008F77809323
:10048000B00098CF8091B0008F7DF9CF1F920F926E
:100490000FB60F9211242F933F938F939F93AF9397
:1004A000BF938091B4019091B501A091B601B09134
:1004B000B7013091B30123E0230F2D3758F5019692
:1004C000A11DB11D2093B3018093B4019093B50198
:1004D000A093B601B093B7018091AF019091B001A4
:1004E000A091B101B091B2010196A11DB11D8093FF
:1004F000AF019093B001A093B101B093B201BF914D
:10050000AF919F918F913F912F910F900FBE0F90C0
:100510001F90189526E8230F0296A11DB11DD2CF7A
:100520001F920F920FB60F9211242F933F934F9368
:100530005F936F937F938F939F93AF93BF93EF934B
:10054000FF9382E191E00E942401FF91EF91BF911E
:10055000AF919F918F917F916F915F914F913F915B
:100560002F910F900FBE0F901F9018951F920F9212
:100570000FB60F9211242F938F939F93EF93FF93B6
:10058000E0912201F09123018081E0912801F09116
:10059000290182FD1BC0908180912B018F5F8F7399
:1005A00020912C01821741F0E0912B01F0E0EE5EEA
:1005B000FE4F958F80932B01FF91EF919F918F912B
:1005C0002F910F900FBE0F901F9018958081F4CF40
:1005D000789484B5826084BD84B5816084BD85B51E
:1005E000826085BD85B5816085BD80916E0081602A
:1005F00080936E00109281008091810082608093D0
:1006000081008091810081608093810080918000D1
:100610008160809380008091B10084608093B100FC
:100620008091B00081608093B00080917A008460F6
:1006300080937A0080917A00826080937A00809122
:100640007A00816080937A0080917A00806880933C
:100650007A001092C100E0912201F091230182E022
:100660008083E0911E01F0911F011082E091200132
:10067000F09121018FEC808310922A01E0912601F4
:10068000F091270186E08083E0912401F09125011B
:10069000808180618083E0912401F0912501808137
:1006A00088608083E0912401F09125018081806839
:1006B0008083E0912401F091250180818F7D8083EA
:1006C000C0E0D0E089E00E94870089E00E94B30189
:1006D00086E00E94870086E00E94B301209791F394
:1006E0000E941001882371F30E940000EBCFE2E129
:1006F000F1E01382128288EE93E0A0E0B0E0848300
:100700009583A683B78384E091E09183808385EC11
:1007100090E09587848784EC90E09787868780ECCB
:1007200090E0918B808B81EC90E0938B828B82ECBC
:1007300090E0958B848B86EC90E0978B868B118E66
:10074000128E138E148E0895EE0FFF1F0590F491F4
:08075000E02D0994F894FFCF9D
:10075800000000004601A600D30093010401E20056
:02076800F60099
:00000001FF
